S02B0000626F6F746C6F616465722D73746F726167652D696E7465726E616C2D73696E676C652D3335326B5FBD
S113000000800020A10000009D000000FB00000013
S11300109D0000009D0000009D0000009D00000068
S11300209D0000009D0000002C3200009D00000097
S11300309D0000006C3200009D0000009D00000047
S113004010B5054C237833B9044B13B1044800E0D0
S113005000BF0123237010BD080100200000000030
S1130060B834000008B5034B1BB10349034800E052
S113007000BF08BD000000000C010020B8340000DF
S1130080044B054A9A60D3F8882042F47002C3F8FE
S11300908820704700ED00E000000000FEE700004B
S11300A008B5FFF7EDFF00F08FF80A4A0A4B0B4939
S11300B08B4206D300210A4B0A4A934206D300F02E
S11300C021F852F8040F43F8040BF1E743F8041B3A
S11300D0F3E700BFB834000000010020080100204D
S11300E008010020280100200020704770470120EB
S11300F0704700F081BD00F0DBBD4FF4017001F0EA
S113010069BF00002C4B13B51B68C3F30743012BD5
S113011010D12A4B4FF48022596E41F264004903F6
S11301204FF0040458BF42F264011A50244804609A
S113013058BF5A504FF040234FF400621A67D3F867
S11301408420D206FBD4FFF7D4FF01F013FF08B9D3
S113015001F0FEFE01F07FFC044658B901F00AFFED
S113016008B101F001FF40F2012001F033FF4FF428
S1130170017018E001F0FEFE08B901F0EFFE01F095
S11301800FFF012802D901F0EFFEFEE701F012FF94
S11301900C4B0193019B002B0ADC40F205439C426B
S11301A0E5D140F2032001F015FF002002B010BD9C
S11301B0019B013BEDE700BF0080E00F00800040A1
S11301C02020014000350C0013B501244FF04023DA
S11301D08DF806408DF80740D3F894305B060FD5B0
S11301E001F00CFFA0F2022080B2072808D8844056
S11301F014F0C90F1EBF00238DF806308DF80730A8
S113020046F204031B68013308D14FF4027001F075
S1130210BCFE00238DF806308DF807309DF80730BA
S113022063B14FF4C04001F07FFD8DF806009DF8E6
S113023006301BB94FF4027001F0A7FE9DF806309A
S11302408BB101F097FE08B101F08EFE4FF4C0436C
S1130250064A93601846016881F3088881F3098887
S113026040688746FEE702B010BD00BF00ED00E025
S11302700020704730B541F264030825094C01445D
S1130280E55001240025084B5C609D601A611A4604
S1130290DC60884201D1586A30BD10F8014B146209
S11302A0F7E700BF0080004000800840F8B51D4615
S11302B00F4641F268034FF400511646114A0446B2
S11302C0D150022302F59352136001F036FADDE9AE
S11302D00612204601F035FA002384F83870636270
S11302E032682B0CC4F839207268C4F83D20B26817
S11302F084F845302B0AC4F8412084F8463084F849
S11303004750F8BD0080004030B51D4685B000F16F
S11303102803CDE90112009300F1240200F138030F
S1130320294601F060FA05B030BD00002DE9F04126
S1130330B0B0369C064600286BD0002969D0002A4C
S113034067D0002B65D0002C63D006204FF40057F3
S1130350069041F26800304D01F120082F5003252A
S11303602E4820AF056000200D46BE4609900C9033
S11303700F90F446286869680835ACE803004545E1
S1130380E646F6D10DF1A00C02F1200E6546106888
S11303905168083203C57245AC46F7D10DF1400CE3
S11303A0654603F1200E2A4618685968083303C2CB
S11303B073451546F7D1234618AC03F120052246B0
S11303C018685968083303C2AB421446F7D1402376
S11303D00893CDE90A7320230AAA0E9303AB07CA34
S11303E0CDF81CC00D9683E8070007AB93E807001F
S11303F08DE807000DAB0ECB094800F0D1FF069045
S1130400069B40F20460002B08BF002030B0BDE81A
S1130410F08140F20160F9E7008000406092004002
S1130420383400004FF4005141F26802074B10B514
S113043099500222044603F593531A6000F0B0F871
S11304402046BDE81040002100F0AEB80080004016
S113045000F0AFB8014600F0B9B800002DE9F74349
S11304601446DDE90A820E461F46002845D11CB910
S1130470002003B0BDE8F08313683F2B3BD85168DC
S1130480204D11B1002F18BF3D4603F03F00E31883
S1130490136022BF53680133536080B3C0F1400935
S11304A04C4522D331464A46404402F0A0FE012383
S11304B04246009329463B460020A4EB090400F081
S11304C093F83F2C4E440DD93D46A3090093324680
S11304D03B462946002000F087F824F03F031E44E1
S11304E004F03F04002CC3D000202246314640448F
S11304F002F07DFEBCE73D46C7E70348B9E73F2C61
S1130500F3D9E2E7AC32000080AFFFFFF0B51D463F
S11305100C4617461A6887B0D3008DF80F3053097C
S11305208DF80E30530B8DF80D30530D8DF80C30C3
S11305306B68CDE90075D90001EB52718DF80B1091
S113054002F03F025909372A8DF80A104FEA533155
S11305504FEA535394BFC2F13802C2F178028DF8C6
S113056009108DF808300D4923460646FFF776FF3B
S1130570082223460DEB0201CDE900753046FFF752
S11305806DFF23460C9A04F1200153F8040B8B42AF
S113059042F8040BF9D1002007B0F0BDCC320000C2
S11305A06822002102F02EBE0023C0E90033184661
S11305B0704707B500F128030190009300F1080388
S11305C00020FFF74BFF03B05DF804FB07B50346BB
S11305D0009100F1280200F108010020FFF796FFC6
S11305E003B05DF804FB0000F0B51C4693B000288E
S11305F037D1189B06909B01CDE904230AAA0B4628
S1130600154601F12007164618685968083303C6D1
S1130610BB423246F7D100230795099301F06CF9E8
S11306200646D8B92023089304AB93E807008DE865
S1130630070007AB0ECB042001F014F8074601F0C5
S113064071F987B923462A4612AD144603CCAC424D
S113065018605960224603F10803F6D1304613B0FE
S1130660F0BD024EFAE7024EF8E700BF80AFFFFF8D
S113067080ADFFFF430910B507D0012B0FD00A4C02
S11306800A4A022B14BF2346134600F01F0041B14F
S113069003F58053012202FA00F0186010BD044BE8
S11306A0F3E703F50053F5E76082004068800040FB
S11306B064800040F0B5114A114C124E00F001055F
S11306C0E3695F0713D40DB9334213D103EA00077A
S11306D08F4207D10B4A1A40002A14BF6FF0010061
S11306E00020F0BD013AEBD16FF00200F9E74FF0C2
S11306F0FF30F6E76FF00100F3E700BF8096980043
S1130700000003400200010070B5134C6061E06911
S113071043071DD40E1D0968151FA1615DB904238B
S1130720294623612120FFF7C5FF58B9BDE8704071
S11307302120FFF7BFBF08210846FFF7BBFF10B118
S11307400423236170BD56F8043B043DA361E5E72F
S11307504FF0FF30F6E700BF0000034038B54FF418
S1130760003141F26803104A104CD15041F6713304
S1130770E5690122E36341F20C03E2500223606164
S113078000212361212005F48035FFF793FF18B978
S113079001462120FFF78EFF42F20C030122E250B2
S11307A00DB10023E36338BD008000400000034026
S11307B02DE9F84341F2680388464FF400311546A9
S11307C0174A0646D15041F67132164B0121DF69B2
S11307D0DA6341F20C02DFF8509007F48037995045
S11307E055B9284642F20C0201210E4B99500FB123
S11307F00022DA63BDE8F88306F5005404EA09042C
S1130800A41BAC4228BF2C46414622463046FFF783
S11308107BFF0028E6D12644A0442D1BE0E700BF5F
S1130820008000400000034000E0FFFF2DE9F04F8E
S11308304FF0010C41F204044FF440262F4D4FF4C5
S1130840003E45F804C02E4C2E4F44F8206030265C
S1130850002406FB0056F4653466346741F26804EC
S113086047F804E041F67137274C0CFA00F0D4F84D
S11308701CE0E763E768DFF8988047EA0C07AC46BA
S1130880DFF89090DFF890A0E7604BB9E2681EF4BF
S1130890803F22F00102E26000D0E36318462AE0C0
S11308A001F5005525F4FF5525F01F056D1A9D42ED
S11308B028BF1D466161D4F81CB0AF081BF0040FBB
S11308C017D1013F3F0147F0605777660F4FB2667B
S11308D0F766C8F80000DCF834703842FBD004270F
S11308E0C9F800002944CAF800002A4427615B1BA8
S11308F0CBE74FF0FF30BDE8F08F00BF00000440AD
S11309000040044000800040000003401800034001
S1130910241004403420044028100440C369032BED
S11309209FBF00EB83020133D160C36170470000B5
S1130930C1692DE9F043042967D84FF4803441F2AA
S11309406403334A334D566E334FD450334BC5F89A
S11309500036C5F80476F5035CBF42F264055451D1
S11309602F4A304E1A60024652F80C4B5C60002449
S1130970A14222D1214600226FF00308456815BB2D
S11309801346264A43EA04639360136850689268E6
S1130990434053408900234A8819824231D173501D
S11309A0BFF34F8F2049214BCA6802F4E06213431E
S11309B0CB60BFF34F8F00BFFDE752F8043B46F80E
S11309C024300134D4E72B68A1EB020E08FB023C6F
S11309D0134606EB8E0E881AAF68A3EB0209C7F321
S11309E099074F4500EB030105D86A68012AC8D06E
S11309F06D681A46C3E75CF823104EF823100133E0
S1130A00EAE752F8044B6340C7E7BDE8F08300BF50
S1130A100080004000C00740004E00A0004C00A031
S1130A20DEC0ECE50C4C00A000ED00E00400FA058B
S1130A30154B4FF48032586E41F26401C00358BF25
S1130A4042F2640010B55A501049D1F8041658BF48
S1130A501A500A680E4B9A4213D10B690533B3F549
S1130A60007F0ED2002214469A4205D351F8230087
S1130A70031B5842584110BD51F822000132444032
S1130A80F2E70020F7E700BF0080004000C0074005
S1130A90DEC0ECE538B50F4B4FF48032596E044696
S1130AA041F26400C90358BF42F264011A500A4873
S1130AB0D0F8045658BF5A5034B1FFF7B9FF30B1DB
S1130AC000206B68236038BD4FF4E020FBE74FF44F
S1130AD07E00F8E70080004000C007400B4B4FF455
S1130AE08032596E41F26400C90358BF42F2640176
S1130AF010B51A500648D0F8044658BF5A50FFF7AC
S1130B0097FF10B1A068C0F3C05010BD0080004032
S1130B1000C007400C4B4FF48032596E41F2640020
S1130B20C90358BF42F2640110B51A500748D0F8FF
S1130B30044658BF5A50FFF7D1FF08B1E06810BD12
S1130B404FF47E00FBE700BF0080004000C0074078
S1130B50F8B5254B4FF48032596E41F26404C90351
S1130B6058BF42F264011A51204CD4F8045658BFBD
S1130B705A508468FFF7B2FF60B32A6905F1140183
S1130B8051F82230DB4341F82230A86810F4702079
S1130B9011D0A86800F47020F8BD00232768A56868
S1130BA001EB800CC5F39905AB4200EB03060DD0B5
S1130BB0964205D3304684B19042EED30020EBE751
S1130BC05CF8236047F823600133EDE7646824F0A0
S1130BD00104EFE74FF47E00DEE7904234BF4FF4A8
S1130BE0E0200020D8E700BF0080004000C007409C
S1130BF0004870470C33000041F268034FF40031A1
S1130C00014A0020D150704700800040024BD8694F
S1130C1000F00100704700BF0000034008B5034620
S1130C2008469918B1F5B02F04D8194602F0DFFA36
S1130C30002008BD40F20240FBE78318B3F5B02F53
S1130C4010B50ED940F2024010BDC45801340AD187
S1130C5004339A42F9D800F047FF0028F2D000206C
S1130C60F2E70023F5E740F20340EDE74FF0FF30F1
S1130C70704738B541EA0003C3F30C0304469BB93B
S1130C800D18B5F5B02F08D8204604F5005400F02F
S1130C90F1FEA54204D00028F6D140F2024038BD4E
S1130CA00028FAD00020FAE740F20440F7E70000F9
S1130CB042F268034FF40031014A0020D1507047DA
S1130CC00080004013B5044622B10024009400F0D3
S1130CD057F90446204602B010BD000030B501B1FA
S1130CE00139074CE568ED03FCD4120743F00043D7
S1130CF002F080521843024342EA0121616030BD90
S1130D000020024CF0B58DB005AC84E80700069DC8
S1130D101E469D4228BF1D46129815B30BB30027EB
S1130D2000F5181000F241104402CDE90A37631BA4
S1130D3009930CAB43F8185D029593E803008DE822
S1130D4003000CAA059B12E9070000F0A5FCAE42C3
S1130D5007D93946721BA01B0DB0BDE8F04000F066
S1130D6099BC0DB0F0BD30B51D4691B001AC84E81E
S1130D7007000146DDE90223D8004ABF03326A00B6
S1130D8022F0030204A8FFF79DFF04A800F00EF967
S1130D9014992A4601F5181101F241114C02611B04
S1130DA0002308A8FFF78EFF04F5007100232A46EC
S1130DB0491B0CA8FFF786FF0CA800F0F7F808A958
S1130DC004A800F0CDF811B030BD10B58CB005AC5E
S1130DD084E807000E9A029302F5181202F5A07235
S1130DE05202CDE90923002206AB93E803008DE803
S1130DF003000B920CAA059B12E9070000F04CFCBF
S1130E000CB010BD0122054B9A60DA68D203FCD401
S1130E10D86820F00F000004000C70470020024C3A
S1130E202DE9F04B4FF000088AB003AC84E80700CA
S1130E3081461C464646059F07AD07F0805B049B30
S1130E40434502D80AB0BDE8F08B139B13B9B31E17
S1130E50012B0AD9129BCDE90794099700965BB13F
S1130E6095E807002346FFF74DFFBBF1000F00D1C3
S1130E70A1440136A044E2E7234695E80700FFF7C2
S1130E80A4FFF2E782B01FB504AC04E907000A9A94
S1130E90029907938A4228BF0A46039B0798D90000
S1130EA044BF033222F0030222F070410D4A03F0E2
S1130EB0E0431060099A0C4802F0E04242F000520C
S1130EC00A430260002243F00053019C0B4307498C
S1130ED0426084600B60064B1A6004B0BDE81040A9
S1130EE002B070470000024C0800024C1800024C8B
S1130EF03400024C3F22044B1A60102243F8142C95
S1130F0003229A60704700BF3000024C024A136803
S1130F109B07FCD4704700BF3C00024C034B1B688A
S1130F2013F0240F14BF0420002070472800024C43
S1130F3008B5FFF7F3FF084B1B6823F47F4323F046
S1130F40EF03002B14BF0423002303431EBF01221D
S1130F50024B1A6008BD00BF3C00024CFCFFFF3F7F
S1130F60032208B5054B186019615A63FFF7C2FFE5
S1130F70FFF7CCFFBDE80840FFF7DABF0000024CE2
S1130F8010B522F0704200F11004C0E90014826030
S1130F9041B1826803F0704313438360029BC360D2
S1130FA0204610BD836843F08043F6E70123436085
S1130FB0C36843F02003C360836843F00053836035
S1130FC07047C368DB0658BFC368C36803F00F03E8
S1130FD0042B0ED8012202FA03F313F01A0F08D0DF
S1130FE0C36801F01F0143EA0123C3608368194405
S1130FF081607047426810B5182A034609D0202A38
S11310001BD0102A28D1154A1268D40109D4012012
S113101012E0124A12689001F9D50A6842F00802F7
S11310200A600F481A6882424FF000000DD10A6826
S113103042F040020A60586010BD084A126852012A
S1131040E5D50A6842F00402EAE7064CA242F3D16D
S11310500A6842F08002EDE70720EDE70404024C41
S1131060250100202401002007B50B460749096823
S1131070C90708D5002100920246084600F024F969
S113108003B05DF804FB0120FAE700BF0404024C3E
S113109007B50B4607490968C90708D5009201211D
S11310A00246002000F010F903B05DF804FB0120B3
S11310B0FAE700BF0404024C1FB5094C2468640716
S11310C00CD5CDE900120021069C0222CDE90234A0
S11310D00346084600F024F904B010BD0120FBE7E4
S11310E00404024C37B515464A6804463AB18C6884
S11310F00093096845EA0403FFF742FF04462046CB
S113110003B030BD2DE9F04FD3B0CDE90231042155
S113111000238446CDE9051307CA03AE07AB5E9DE1
S1131120619F629C049683E80700BCF1000F40F0C5
S1131130C88031461846FFF75DFF0646002840F098
S1131140BC805D9A0AAB07CA83E807005F9B609A7C
S1131150494201F00F08002152685B684FF0100A01
S113116013445B4203F00F097B680D915B420193CA
S1131170AB681291DA0048BF6B68524642BF033332
S113118023F003036B60A368DB0041BF6368033390
S113119023F0030363605F9B5B680093609BD3F859
S11311A004B0009B5B444B44CDE90E316B685B4259
S11311B003F00F03CDE91013636815915B4203F04C
S11311C00F03CDE9131316AB184602F01BF85D9A12
S11311D052685AB97A684AB9009A3AB9BBF1000F11
S11311E004D1D046CDE90A0ACDF830B011234FF02E
S11311F0005204A932A8FFF775FF40F611034FF01F
S1131200005207A9FFF76EFF42F611034FF0005298
S11312105C99FFF767FF44F611034FF000520299FF
S1131220FFF760FF412300225F99FFF75BFF4FEA5E
S1131230092343F041034FF000526099FFF752FF36
S11312404FEA082343F001034FF000520AA9FFF7C5
S113125049FF019B4FF000521B0203F4706343F0FB
S113126001033946FFF73EFF1038FFF79FFE0023C6
S11312700DA91A461AA8FFF735FF002329461A4676
S1131280FFF730FF002310A91A46FFF72BFF0023B6
S113129021461A46FFF726FF002313A91A46FFF733
S11312A021FF002363991A46FFF71CFF1038FFF74C
S11312B07DFE1AA932A8FFF753FE304653B0BDE8AD
S11312C0F08F0726F9E70000F0B594465A688DB010
S11312D01C4613070646129D1BD1D2B16B689A4275
S11312E017D10D4B0D4A53F8217009AB07CA83E897
S11312F00700CDE90633CDE90433CDE90253CDE946
S11313000034624647F480713046FFF7FBFE0DB0AF
S1131310F0BD0720FBE700BF70330000403300003E
S11313202DE9F0438DB09846DDE91467DDE91659DF
S113133073688446180728D13BB37868834224D164
S11313406B68102B21D1D9F80430102B1DD1104B10
S113135053F821E00F4B53F822400F4A09AB07CA58
S113136083E8070044F03001CDE90639CDE90433C0
S1131370CDE90273CDE90056424641EA0E016046CA
S1131380FFF7C0FE0DB0BDE8F0830720FAE700BF09
S1131390703300004C330000403300000069704794
S11313A070B586B003AD064685E80E00FFF7F6FF7C
S11313B0442804463AD8726800EB80039A4203D06A
S11313C0062343439A4233D10B9BB3EB440F2FD1F3
S11313D00E9A93422CD1F368012221463120FFF763
S11313E07DFC96E807000123CDE900332346FFF78F
S11313F017FD08230AAA009307CA2346FFF7B3FC84
S11314000C23009395E807002346FFF77BFC0A238F
S11314100DAA009307CA2346FFF7A5FCFFF7F2FCC9
S1131420002814BF0320002006B070BD0120FBE794
S11314300720F9E70138C0B206289ABF014B185CAF
S1131440002070474C3400000138C0B206289ABF0F
S1131450014B185C00207047533400000138C0B2BF
S113146006289ABF014B185C002070475A340000CC
S11314702DE9F04F8146BBB003A880E80E0009F1C6
S1131480FF339DF810A1049F0D46DDF81480062B50
S113149000F2E480DFE803F0041E242A30363C0026
S11314A06F4B1B68D80703D401203BB0BDE8F08F15
S11314B0012307930023BAF1010FCDE908332DD09E
S11314C0BAF1020F00F093804846FFF7C7FF632488
S11314D0064630E0624B1B689907E5D50223E8E72E
S11314E05F4B1B685A07DFD50423E2E75C4B1B689C
S11314F01B07D9D50823DCE7594B1B68DE06D3D577
S11315001023D6E7564B1B689C06CDD52023D0E785
S1131510534B1B685806C7D54023CAE7504B1B687A
S1131520D903C1D5079B484643F4C0630793FFF72B
S113153081FF0324064613230422009307A94FF0D6
S1131540005312A8FFF71CFD48F0005300942946ED
S11315503A46FFF715FD4FF00C0B05460024DDF865
S11315601481469B0BFB038BD8455ED1BAF1030F64
S11315700BD14846FFF772FF02464846FFF764FF67
S1131580BA426BD10138204268D1002C5ED10323CA
S1131590224600932846234608A9FFF7F1FC0424B9
S11315A00546103D2846FFF701FD21462846FFF772
S11315B008FD489AB24228BF32461446002A4BD04E
S11315C00023479900930AA8499BFFF7D9FC321BD3
S11315D004D0002300931946FFF7D2FC1038FFF71C
S11315E0E5FC12A80AA9FFF7BBFC00205DE71C4B31
S11315F01A6892037FF558AF1B68DB037FF554AF7D
S113160077B17C4204F00304079B484643F4E0634B
S11316100793FFF70FFF240244F0A30406468AE76A
S1131620B846042708AD3C46EEE7D8F80420144435
S11316304AB1032300932846D8F80830D8F800109C
S1131640FFF79EFC054608F10C088DE714F003042F
S113165018BFC4F10404A4E70AA8B8E7072024E7E4
S11316600C04024C70B58AB007AC84E80E0003ADDC
S1131670064694E8070085E80B00012302930EABAD
S113168001930323009394E80E003046FFF7F0FE25
S11316900AB070BD01F0B6BD82B02DE9F0418AB048
S11316A005AD85E807001193079B149C5B0036D4B5
S11316B0DDF81880139B444528BF444613F080533B
S11316C0129A02D1944228BF144644B30F2C14D961
S11316D0029412AB93E803008DE80300119B95E894
S11316E00700FFF7CFFBFFF705FCFFF70FFC0AB07D
S11316F0BDE8F04102B0FFF71BBC059E119F9BB1F2
S11317000025A8EB0502042A3B6828BF04227019AF
S113171009A90435099301F06AFDAC42F1D80AB075
S1131720BDE8F04102B070472246394630460AB05F
S1131730BDE8F04102B001F05ABD2422002101F0BD
S113174061BD38B514460D462422002101F05AFD2E
S113175024F04002802A034602D0B4F5807F08D1E9
S11317601846E20840F8044B294601F040FD0020E9
S113177038BD6FF07100FBE730B50129016808BF7F
S1131780012521F0400418BF0225802C8BB002D023
S1131790B1F5807F24D1C90802910021CDE903125B
S11317A0102204300190CDE90521CDE907320991D9
S11317B000F0A2F8044668B9012D07AA04A901A8FB
S11317C00BD1FFF751FC054600F0ACF8002D18BF13
S11317D06FF0240420460BB030BDFFF759FCF2E74C
S11317E06FF07104F6E72DE9F04F824691B0884618
S11317F09946164612B31568DAF8003023F0400211
S1131800802A02D0B3F5807F6ED1DB0800240593D3
S11318101023CDE908341B9BCDE906490AF10402E3
S11318204344049202930DF11C0B444508D3002E4B
S113183060D00020356011B0BDE8F08F1546DBE7BD
S11318405DB11B9B1A9A1B5D525D013553401C9A76
S113185005F00F0513550134E7E7A8EB04070F2F34
S11318601DD91B9B27F00F072344CDE90A371C9B86
S11318700C952344CDE90D370F9500F03DF8002871
S1131880D9D15B460DAA0AA9CDF800B004A8FFF788
S113189013FC039000F046F8039B43BB3C441B9BA2
S11318A01F191C9B1C44029BBB4201D14446BCE74C
S11318B07DB94A461A9B01215046FFF75DFF09F1A5
S11318C0100212F8013D0133DBB213700BB99145DC
S11318D0F7D11A9A17F8013B525D0135534004F8C9
S11318E0013B05F00F05DEE76FF07100A3E76FF031
S11318F02400A0E730469EE7094B00209A6E42F48C
S113190000529A66D3F8602242F00102C3F86022C2
S1131910D3F8602242F00202C3F86022704700BF8D
S113192000800040094B00209A6E22F400529A660F
S1131930D3F8602222F00102C3F86022D3F86022B7
S113194022F00202C3F86022704700BF008000400A
S11319500020704700207047002070470020704727
S113196000207047002070470120704728231B681F
S1131970186970472823186870474FF4004070476F
S11319800120704741F206007047000010B5ADF524
S11319900A7D4FF4027208A9002000F05FFC40F2B7
S11319A00124002108A800F09CFBA042F9D040F2D9
S11319B00323984204D040F205400DF50A7D10BD82
S11319C09DF8203059070DD49DF820309A072CD467
S11319D0DB07F0D50B99869800F0B6FC0028EAD016
S11319E00020EAE7129800F013FA0028ECD0FFF781
S11319F091F8164B044698420BD11C22002101A8F1
S1131A0001F000FC68460094FFF7A2F8B0F5403FEF
S1131A10D1D0869800F054FC0028D5D0FFF7ADFF54
S1131A2000F00AFA0028CFD1C5E7282212680999E4
S1131A3092689142CCD9869800F060FC0028BAD014
S1131A40FFF79BFF119900F0B7F9B4E700000343D7
S1131A504FF420307047FFF799BF000000487047EB
S1131A604C630500004870476C63050000487047EC
S1131A708662050008B54FF4003141F26803044A58
S1131A80D150FEF76BFEB0FA80F0400908BD00BFEC
S1131A9000800040072BF8B506460F4614461D4645
S1131AA001D90020F8BD01212020FEF7E3FD01212A
S1131AB02120FEF7DFFD9CB144EA06039B07F0D129
S1131AC041F268034FF40031064A2846D1502346B8
S1131AD03A463146FEF7AAFEB0FA80F04009E1E743
S1131AE00120DFE70080004038B5134672B103439C
S1131AF09B070DD141F268034FF40035054CE550C6
S1131B00FEF756FEB0FA80F0400938BD0120FCE72C
S1131B100020FAE700800040C0F30C032DE9F041F7
S1131B2005460F4616460BB9FFF7A4FF05F500540A
S1131B3024F4FF5424F01F0405EB0608A04507D83D
S1131B40324639462846BDE8F0410223FFF7A2BFDA
S1131B502046FFF78FFF04F50054EFE770B5044605
S1131B600E461546FFF706FF0369A3420AD84269E9
S1131B7063199A4206D32A4631462046BDE870408E
S1131B80FFF7CABF70BD2DE9F041154607468846E8
S1131B90FFF7F0FE0646FFF7F0FEC4196319B3F52C
S1131BA0002F0FD83FB9FFF7E8FE7369834202D9CB
S1131BB03069FFF75FFF2A4641462046BDE8F04101
S1131BC0FFF7AABFBDE8F081F0B585B06C460246C8
S1131BD026460D4B03F1100725461868596808334B
S1131BE003C5BB422C46F7D104AB501E13F8011DAC
S1131BF010F8012F914204D1B342F7D1012005B06E
S1131C00F0BD0020FBE700BF61340000007C012828
S1131C108CBF00200120704738B504460D46FFF7FD
S1131C20D3FF48B16369012B09D12046FFF7EEFFCA
S1131C3008B1A3692B6038BD2C600120FBE70020AC
S1131C40F9E740F20463F0B5A1B0446B0546049390
S1131C50FFF790FE06462046FFF7B6FF10B90020B6
S1131C6021B0F0BD2046FFF7D1FF0028F7D0FFF7E1
S1131C7079FE002847D134231F683846FFF7A4FFB4
S1131C800028ECD045F6C0739F42E8D8002320A971
S1131C9001F8713D2046FEF72AFA0028DFD005A995
S1131CA02046FFF7B9FF0028D9D0059B32699A4234
S1131CB0D5D8AB42D3D3B3F5002FD0D806A8FEF7BE
S1131CC0B1FB059A2946521B06A8FEF7C1FB06A8DC
S1131CD0FEF7C0FB059DFFF743FE2035059ED8B1F6
S1131CE09DF80F30B3B1A36B03F1240200920433C7
S1131CF02A46314606A8FEF719FB04900498B0FA68
S1131D0080F04009ACE70121206AFEF7EDF90028D4
S1131D10B1D1A4E7BB6BE7E7FFF7A0FE0446FFF7EA
S1131D20A1FE23460090E3E7F8B5D0E9006706F189
S1131D3060460446456BFFF71DFEB6F5004F01D91A
S1131D400020F8BD0369BB42FAD8B7F5002FF7D8D5
S1131D504033AB4202D8B5F5002F05D9FEF788FA17
S1131D6080F00100C0B2ECE7FEF782FA20B1204611
S1131D70BDE8F840FFF765BF2846FFF725FFB8B177
S1131D802846FFF743FF0028DAD06B69002BD8D030
S1131D90022BECD1AB69C4F1040119444FF0FF32BA
S1131DA02046FEF767FA034BC31A58425841C8E766
S1131DB00120C6E7E320BBDE70B54FF0FF3288B0E8
S1131DC006460D46FEF756FA0F4B984219D1FEF718
S1131DD08DF940F2022000F0D8F81C22002101A85D
S1131DE001F010FA094B08AC44F8203D3146204676
S1131DF0FEF794FD20462946FEF790FD2046FEF7A7
S1131E0097FD002008B070BDE320BBDE010006434F
S1131E104FF0FF3313B5044602A840F8043DFEF723
S1131E2039FE30B90198A0422CBF0020012002B035
S1131E3010BD0020FBE7000030B5054689B040F234
S1131E40022000F0A2F81C22002101A801F0DAF916
S1131E50064B08AC44F8203D29462046FEF75EFDBB
S1131E602046FEF765FD002009B030BD00000343A5
S1131E70B1F5027F10B5044610D34FF4027200216D
S1131E8001F0C0F9002304F5C872637004F5A4716D
S1131E9004F12C00BDE8104000F0D4BC40F2052051
S1131EA010BD13B50446009101462C3000F010FD1E
S1131EB0C4F8040218B141F20703984209D1A37887
S1131EC04BB140F2032040F20223E278002A08BF1B
S1131ED0184602B010BD40F20120FAE72DE9F043A4
S1131EE087B002AF04468846914600211022384646
S1131EF01D460E9E01F086F900211C223160284601
S1131F0001F080F94B4642460097214604F12C002B
S1131F1000F0DEFC23789A0744BF636833602378BB
S1131F20DB0709D504F1080304F1240253F8041B68
S1131F30934245F8041BF9D1237840F20640002B64
S1131F4018BF002007B0BDE8F0834FF4027070475B
S1131F504FF000534CF23C325A8070474FF000531C
S1131F604AF6C0325A8070474FF000534FF20F02C6
S1131F705A8070474FF000534AF6C0305B8823F014
S1131F800F031B1A5842584170474FF0005208B5CE
S1131F901080FFF7EFFF10B94FF20F03538008BD15
S1131FA008B5FFF7E7FF20B14FF00053987800F031
S1131FB00F0008BD08B5FFF7DDFF50B14FF0005228
S1131FC0538803F00F010F2914BF013323F00F03CB
S1131FD0538008BD08B5FFF7D8FFBFF34F8F0549FD
S1131FE0054BCA6802F4E0621343CB60BFF34F8F22
S1131FF000BFFDE700ED00E00400FA0508B5FFF7B7
S1132000B9FF30B94FF000534FF20F015A888A429A
S113201003D14FF00053188808BD3AB91B8840F229
S11320200220012B18BF4FF40070F5E74FF4007045
S1132030F2E7000031B10A4B5A68824205D8002306
S1132040C1E9003340F201407047013053F83020B9
S113205003EBC0035B680A604B600020704700BF5D
S11320602833000001221A707047000070B40D4C30
S11320700E461146626882420DD9013004EBC0025B
S11320805268F51895420AD854F830001A4630447C
S113209070BCFEF7C3BD40F2014070BC704740F213
S11320A00240FAE72833000030B504460D46A3B0D9
S11320B002AAD0F800128023D0F8F801FFF7D6FF67
S11320C00095802302AA214604F12C0000F000FCB4
S11320D0D4F80032C4F804028033C4F8003223B0C8
S11320E030BD1FB50023CDE90033CDE90213D0F88C
S11320F004320446A3B9D0F80022D0F8FC319A4245
S11321000ED26946FFF7D0FFD4F8040298B141F229
S1132110070240F20123904208BF184604B010BDE4
S1132120A3785BB140F2022040F20323E278002A54
S113213018BF1846F2E740F20120EFE740F2022010
S1132140ECE7000070B50D46002186B006AB03F83D
S1132150111D02931E4B04461646116028461C228C
S1132160CDE90333059301F04DF89DF8072062B9DA
S113217094F87230142B08D0D4F804322BB9D4F864
S11321800012D4F8FC3199421AD32378990744BF3A
S1132190636833602378DB0709D504F1080304F18D
S11321A0240153F8040B8B4245F8040BF9D162B9AE
S11321B0237840F20640002B18BF002006B070BD03
S11321C002A92046FFF770FFCFE70020F6E700BF23
S11321D06520000070B40D4C0E46114662688242C0
S11321E00DD9013004EBC0025268F51895420AD8A3
S11321F054F830001A46304470BCFEF71EBD40F25D
S1132200014070BC704740F20240FAE728330000F6
S1132210074B5A68824207D9013003EBC002516868
S113222053F83000FEF725BD40F20140704700BF6F
S11322302833000010B5044660B14FF48032002307
S1132240C0E90023044B1A785B680272C360FEF78E
S1132250CFFC206110BD00BF2833000037B50C4609
S1132260054611462046FFF703FE48B9694628464D
S1132270FFF7E0FE20B9019BC4F8F851C4F8FC3123
S113228003B030BD38B500F5C87204460D462023AE
S113229000F5A4712C3000F0D5FAD4F804322BB92F
S11322A0D4F80022D4F8FC319A4203D3A07800B1C8
S11322B0E07838BD29462046FFF7F6FEEDE700003A
S11322C000B5ADF5077D4FF4027204A9FFF7C6FF10
S11322D078B904238DF81130074BCDE90000029042
S11322E0694604A80393FFF7CDFF0DF5077D5DF85C
S11322F004FB0020F9E700BF871B000030B5ADF5F3
S1132300077D0D460446FFF735FB8368AB4203D3D4
S113231000200DF5077D30BD4FF4027204A920465C
S1132320FFF79CFF0028F3D102238DF81130054BF1
S1132330CDE900000290694604A80393FFF7A2FFC9
S1132340E7E700BF871B000000B5ADF5077D4FF43C
S1132350027204A9FFF782FF78B901238DF81130C6
S1132360074B0090CDE901300390694604A8FFF7BC
S113237089FF0DF5077D5DF804FB0020F9E700BF38
S11323805D1B00002DE9F0419AB0502204460D4631
S113239006A8002100F036FF1422002101A800F055
S11323A031FF01A8FFF746FF049B012B0ED8002341
S11323B04FF0FF3223600123AB4203D300201AB055
S11323C0BDE8F08144F823200133F5E7AB426BD339
S11323D0FFF73EFB059B0C2206A90646DF68FEF7C5
S11323E01DFC0028EBD1DFF8CC80069B434516D1B9
S11323F0089A06A93046FEF711FC4FF0FF320899FF
S113240006A8FDF737FF2A4B984233D04FF0FF332D
S113241004EB8505A54213D044F8043BFAE737449E
S11324200C2206A93846FEF7F9FB0028C7D1069B03
S113243043450BD04FF0FF3304EB8505A54202D191
S113244040F20550BBE744F8043BF7E706A9089AB5
S11324503846FEF7E3FB059B3046D968FEF709FCD6
S11324600028ACD1089A06A93046FEF7E6FB0028FE
S1132470BED0A4E7089BA3F110029208AA4228BF89
S11324802A460023934207D14FF0FF32AB4295D244
S113249044F823200133F9E706A901EB8301C96855
S11324A044F823100133EDE740F2045087E700BFFE
S11324B0E320BBDE39528FE1F0B59BB00D464422D8
S11324C00021074609A800F09DFE01232F4A0021A0
S11324D0CDE906235023142201A8089300F092FEAC
S11324E001A8FFF7A7FE049BAB424BD3012B08D8EE
S11324F03B6840F204500133012B98BF00201BB00D
S1132500F0BDFFF7A5FA059B102DDC68064628BF31
S1132510102500230444AB4226D14FF0FF32102B88
S11325202AD14C214FF0FF3206A8FDF7A3FEC04389
S1132530059B1990D9682046FEF79BFB0028DED145
S1132540502206A92046FEF778FB0028D7D1059B28
S11325503046D968FEF78DFB0028D0D1502206A959
S11325603046FEF76AFBCAE757F8231006AA02EBC7
S11325708302D1600133CEE706A901EB8301CA606F
S11325800133CCE740F20450B9E700BF39528FE180
S113259070B596B014220021064601A800F032FE60
S11325A001A8FFF747FE049C012C1ED906AD214665
S11325B02846FFF7E7FE20B140F2055398420DD1BB
S11325C0002055F820305A1C0AD116AB03EB8000CA
S11325D040F8406C21462846FFF76EFF16B070BDE8
S11325E0B34205D001308442EBD140F20250F5E70A
S11325F040F20350F2E770B5D1E90152AA4205D284
S113260090F840302B449B1A402B10D9002012E044
S11326100A6890F84040D65C90F841200133224487
S113262002F03F02013486548B6080F840408B688E
S11326309D42EDD8012070BD2DE9F8431746D1E93C
S11326400125521B90F8405004462A4493420E46FA
S11326509DF820909DF8248057D9FFF7CCFF0028DF
S11326605DD1152341F2020084F84630BDE8F883B9
S113267094F84120A25C7A5594F841200135013246
S113268002F03F0284F8412094F84020013A84F893
S1132690402094F8402012B1AB42E9D11D46D6E95E
S11326A001128A4201D2AB4231D8AB42D9D1D4F81B
S11326B0882029463846FDF7DDFDC4F88800B9F1C5
S11326C0000F04D02A463946E06CFDF7C1FEB8F18C
S11326D0000F08D094F843302BB12B463A463946C4
S11326E0A06CFDF711FE94F8433043B1E36DA26D85
S11326F02B449342E36524BF002384F84330636D85
S113270041F203001D446565B0E70025C1E7316867
S11327108A5C7A55B26801350132B260BFE70020A5
S1132720A4E700007FB50023CDE900330823154654
S11327300DEB03020446FFF77FFF41F203039842C7
S1132740064626D194F8433063B10822E06C0DEBC1
S11327500201FDF77DFE08230DEB03021146A06C78
S1132760FDF7D2FD039A029B6A6094F843202B6024
S11327705AB9094A934208D0084A934205D008221C
S1132780E06C0DEB0201FDF763FE6B68236500232B
S11327906365304604B070BDF70A0AF7FC0404FC14
S11327A02DE9F843044658680D4616461F4600288E
S11327B043D08B0743D1FFF7D9F8216E00F1040C05
S11327C006EB0109CC451DD800F11C02914219D237
S11327D08C45634638BF0B46914594BFC3EB09094A
S11327E0C3EB0209591AA3EB0C0005EB010868308E
S11327F04A464146204400F0FAFC4A46FF2140463E
S113280000F000FDFFF7B9F8226E031D93420AD3CE
S1132810B1180830814206D39B1AEA58C4F88020C4
S11328204FF0FF32EA50D7E900383246206E29468D
S1132830C0470020236E1E442666BDE8F88341F29B
S11328400200FAE72DE9F04100254FF0FF37044676
S11328508846164603F0200380F8423080F846503C
S1132860A0F8405080F8435080F8455080F8445018
S1132870C0F88870C0E918551822FF21683000F0AC
S1132880C1FCC4F88070C4F88470C4E9128688223C
S1132890294604F1900000F0B5FC84F81851FFF7C4
S11328A05DF830B1B8F1000F03D141F20B00BDE87F
S11328B0F081FFF751F830B1002EF6D0E06CFDF74F
S11328C0B1FD0020F3E7002EF8D13046EFE7000019
S11328D02DE9F04FB7B0CDE909233422D2F800A096
S11328E045F6C07203930023924504468846409DF2
S11328F00B9300F2E28099460B9A039B9A425CD2B6
S113290094F84630152BF8D8DFE813F08E00A700B2
S11329108700D4005900400037005602400050029E
S11329204000370240005002440320041600B40360
S1132930B803D403C90220040027636D0F2B71D898
S1132940012610230CAA0197009609A92046FFF737
S113295073FE41F203030690069A9A426FD1D4F8AB
S113296048B0FFF783F880230DAACDE900030221C4
S113297033465846FDF79AFCDFE70126D4E91432C2
S11329809A42C0F06C8184F84660B5E70DF1300BD3
S1132990D4E91462B2420B9944D20A9BB61A94F851
S11329A040205B1A032E134440F20A82032B00F2E8
S11329B0308209A92046FFF71EFE00207FE0012691
S11329C0636D072B98D808230CAACDE9006609A9E2
S11329D02046FFF731FE41F203030690069A9A421D
S11329E02DD198F8003043F0020388F800300C9B96
S11329F0C8F80430236D083BC8F824300D9B0593B8
S1132A00002B57D1052284F8462094F845206366AC
S1132A1042F0010284F84520D2E70026636D072BBB
S1132A2040F2E480012315E007AA09A92046FFF734
S1132A3079FE41F203030690069A9A4201D0069861
S1132A403DE0089B079A236500236365A04B9A42E7
S1132A5030D1022384F846304EE707AA09A920465C
S1132A60FFF760FE41F203030690069A9A42E6D10C
S1132A7094F84420079B22B1964A93421AD10E231C
S1132A80E8E794F84220D60756D594F84320002A64
S1132A9040F05F83904A934248D01BD88F4A9342B8
S1132AA000F098800ED88A4A934203D002F1B642CD
S1132AB093421AD1152384F8463041F2010037B00D
S1132AC0BDE8F08F864A9342F4D0864A9342F1D00F
S1132AD0854AEDE7854A93421ED00FD8844A934233
S1132AE000F05983834A934218D0152307A884F829
S1132AF04630FEF72DFF0028DFD11AE07E4A9342CC
S1132B00D8D07E4A9342D5D0724A9342EDD1FEF793
S1132B1023FF0028B3D0CDE710239BE7112384F8CB
S1132B204630236DA3650023E365E5E6152384F8A9
S1132B30463041F20800C2E76A4A934236D000F2B6
S1132B401C83664A934240D000F20D8302F1D742BF
S1132B5002F5D81202F6F832934223D007A8FEF702
S1132B60F7FE002838D01423079884F84630C4F8B8
S1132B708C00FEF7EFFE94F84230814698067FF50C
S1132B80BBAEB9F1000F3FF4B7AED9F80430002B57
S1132B903FF4B2AE204698470690069B002B3FF4C4
S1132BA0ABAE8AE70B2355E7062353E7072351E728
S1132BB00D234FE7FEF7D0FE00287FF47BAF94F897
S1132BC04330002B3FF45BAF74E794F84330002BA1
S1132BD07FF470AF12233DE7152384F8463094F850
S1132BE04330002BA5D041F2040068E701230CAA6E
S1132BF000930196082309A92046FFF71DFD41F221
S1132C0003030690069A9A427FF419AF0C9B03F0D3
S1132C107F43B3F1407F05D0152341F2090084F8C6
S1132C2046304CE70D9BD90705930ED594F84230F6
S1132C3043F0010384F84230FEF78EFE00283FF48F
S1132C40EDAE059BDA0504D5E8E6FEF787FE00281D
S1132C50F2D0152341F20A0084F846302FE70CAA7B
S1132C60CDE9006609A92046FFF7E6FC41F203031B
S1132C700690069A9A427FF4E2AE08F108073B46B2
S1132C800DF1300C0DF1480E624603CA724518600E
S1132C905960944603F10803F6D11068186098F857
S1132CA00030384643F0010388F80030FEF768FE30
S1132CB028B9152341F20C0084F84630FFE60021C0
S1132CC03846FEF751FE00287FF458AEF1E700BF06
S1132CD0EB17A603FC0404FCF70909F7F30B0BF349
S1132CE0F50909F5F60808F6F40A0AF4FA0606FAEC
S1132CF0F70A0AF7F90707F9FD0303FDFE0101FED0
S1132D0001230EAACDE9003309A908232046FFF7C1
S1132D1093FC41F203030690069A9A427FF48FAE25
S1132D2098F8003043F0040388F800300F9BC8F88B
S1132D30283098F801305B071CD50020A34B60664F
S1132D400C93236DC4F8843094F8453043F00203A7
S1132D5084F84530EE686EB12B6804220CA9B047A4
S1132D600822606E2B68EE680EA91044B047636EAB
S1132D70103363660C2384F84630636D072BBFD988
S1132D80BAE504230CAACDE9006609A92046FFF799
S1132D9053FC41F203030690069A9A427FF44FAE25
S1132DA0226D0C9B042A059301D923660126636DC9
S1132DB0032BE6D90A234DE600236366082349E67C
S1132DC09E423FF6F6AD9E4228BF1E460123032EC7
S1132DD088BF26F00306CDE900335A46334609A9D5
S1132DE02046FFF729FC41F203030690069A9A4213
S1132DF07FF425AE94F84630082B13D1AF688FB119
S1132E002B6832465946606EB847636E1E44666648
S1132E10BEE5402E28BF4026D5E74FF0FF320BF821
S1132E2006200136032EF8D90A2B11D16B683BB169
S1132E30012108F10800FEF797FD00283FF439AF9F
S1132E402B46324659462046FFF7AAFC06909FE5DA
S1132E50052B18D198F801309F077FF599ADEB68E1
S1132E60002B3FF495AD626E042A0AD89319062B01
S1132E7007D90DAB9B1A1A68C4F884204FF0FF32AF
S1132E801A60EF68BCE70C2B7FF482AD98F8013030
S1132E9058077FF57DADEF68002FB1D178E594F840
S1132EA04230990607D5D4F88C00FEF753FD8146CD
S1132EB000283FF402AE6B683BB1012108F1080021
S1132EC0FEF752FD00283FF4F4AE012743E0002B47
S1132ED05ED0B9F1000F5BD0D9F81030002B57D079
S1132EE020469847DDE90A63F61A94F840303344E3
S1132EF098423FF65EADD4E91462B61A402E28BF5C
S1132F0040269E4228BF1E460CAA3346CDE90077D0
S1132F1009A92046FFF790FB41F203030690069AA5
S1132F209A427FF48CAD94F842309A0613D5B9F1E5
S1132F30000F3FF4C2ADD9F808B0BBF1000F3FF465
S1132F40BCAD2B4632460CA92046D8470690069BBA
S1132F50002B7FF474ADD4E9142194F842309142EB
S1132F6003F02003B3D3002B3FF45CADB9F1000FA1
S1132F703FF458ADD9F80C30002B3FF453AD29463B
S1132F80204698470690069B002B3FF44BAD56E530
S1132F900120A7E700230CAACDE9003309A90423E3
S1132FA02046FFF749FB41F203030690069A9A4232
S1132FB07FF445ADD4F88820054B9A420AD01523F6
S1132FC041F2050084F8463079E500BFEB17A65EB0
S1132FD0E320BBDEFEF7C0FC10B9012388F8033000
S1132FE098F80330002B3ED094F845309B0707D067
S1132FF0EE682EB104222B6804F184011046B04718
S1133000236E83B36B6873B34FF0FF3336AF47F867
S1133010C43D04F1800904224946384600F0D8F83A
S113302040B1FEF7AAFC28B1D5E90036042249468E
S11330301044B04704F1680604223146384600F0D3
S1133040C7F880B16F68FEF791FC2B68142204F175
S11330506C010830B8476F68FEF788FC04222B68BF
S113306031461044B847012388F802300F2384F80E
S11330704630A2E4012384F84330EBE494F8183199
S1133080002B7FF439AC1CAB524609A92046FEF74D
S113309079FC41F206030690069A9A4203D115235D
S11330A084F84630CBE441F20303069A9A423FF493
S11330B023ACC4E494F84430002B7FF4B3ACCDE9E2
S11330C000330CAA402309A92046FFF7B5FA41F2C0
S11330D003030690069A9A427FF4B1ACE06CFDF7C4
S11330E0B9F994F81831ABB104F1B403009304F1C5
S11330F09403E06C14AA0CA9FDF718F90690069B3A
S1133100F3B1002388F80330152341F2060084F854
S11331104630D4E4FEF724FC30B1DAF8383003F159
S1133120240200920433E4E7E66CFEF797FC0746BA
S1133130FEF798FC3B46009014AA0CA93046DBE746
S1133140012388F8033084F844306BE441F207002B
S1133150B5E4174A93423FF429AD0ED8154A934279
S11331607FF4F2ACA6E4144A93423FF41DAD134A33
S113317093427FF4F3AC04236CE4114A93423FF48A
S113318019AD0AD80F4A93427FF4E8AC94F843305F
S1133190002B7FF48FAC13235CE40B4A93423FF47F
S11331A007AD0A4A93427FF4D9AC092352E400BF25
S11331B0F60808F6F30B0BF3F40A0AF4F50909F51B
S11331C0FC0404FCF70A0AF7FD0303FDFE0101FEFB
S11331D030B50024A24201D1002007E0035D013490
S11331E00D1915F8015CAB42F4D0581B30BD431ED9
S11331F00A4410B5914200D110BD11F8014B03F8F7
S1133200014FF7E702440346934200D1704703F8A5
S1133210011BF9E7F8B500BFF8BC08BC9E4670472F
S1133220F8B500BFF8BC08BC9E46704707B0CD5E39
S11332300100000000000C01C83400000060000020
S113324000800500F0000100F3000000F70000001A
S1133250291D0000711E0000A31E0000743400002C
S1133260DD1E00004B1F00000000000013B779FAB8
S1133270C925DDB7ADF3CFE0F1B614B80101000004
S113328000000000C43400004000000000000C01F5
S1133290000000000000000000000000000000002A
S11332A00000000000000000000000006A09E6675A
S11332B0BB67AE853C6EF372A54FF53A510E527F53
S11332C09B05688C1F83D9AB5BE0CD19800000009F
S11332D000000000000000000000000000000000EA
S11332E000000000000000000000000000000000DA
S11332F000000000000000000000000000000000CA
S113330000000000000000000000000001020300B3
S113331028000000280000000020000000800500B4
S11333203833000004000000010000000100000028
S11333300080020000400200454652333200000083
S11333400000000000000000000000400001000038
S1133350000200000004000000080000001000004B
S11333600020000000400000008000000000010078
S11333700000000001000000FFFFFFFF000000014B
S1133380000000000000000000000000FFFFFFFF3D
S1133390FFFFFFFFFFFFFFFFFFFFFFFF0000000035
S11333A0FFFFFFFFFFFFFFFFBCE6FAADA7179E84F8
S11333B0F3B9CAC2FC6325516B17D1F2E12C424721
S11333C0F8BCE6E563A440F277037D812DEB33A0DE
S11333D0F4A13945D898C2964FE342E2FE1A7F9B86
S11333E08EE7EB4A7C0F9E162BCE33576B315ECEA5
S11333F0CBB6406837BF51F5FFFFFFFF0000000167
S1133400000000000000000000000000FFFFFFFFBC
S1133410FFFFFFFFFFFFFFFC5AC635D8AA3A93E728
S1133420B3EBBD55769886BC651D06B0CC53B0F69B
S11334303BCE3C3E27D2604B78330000C0000000F6
S113344000000000000010002000000010141C20E8
S113345030402040404040808040101420204040B4
S113346020B814B6F1E0CFF3ADB7DD25C9FA79B7CA
S11334701300000000010000352200003520000088
S11334806D200000D521000011220000B9240000A5
S113349085230000912500005D220000E320000048
S11334A0452100000D0C00001D0C00003B0C000029
S10F34B0730C00006D0C00000000000014
S10B34BC65000000410000005E
S90300A15B
